:100000000C9434000C9451000C9451000C94510049
:100010000C9451000C9451000C9451000C9451001C
:100020000C9451000C9451000C9451000C9451000C
:100030000C9451000C9451000C9451000C945100FC
:100040000C9451000C9451000C9451000C945100EC
:100050000C9451000C9451000C9451000C945100DC
:100060000C9451000C94510011241FBECFEFD8E026
:10007000DEBFCDBF11E0A0E0B1E0ECE1F5E002C0F1
:1000800005900D92A632B107D9F721E0A6E2B1E0C2
:1000900001C01D92AA32B207E1F70E9447010C94F9
:1000A0008C020C940000FC018AE091E09183808333
:1000B00012820895AF92BF92DF92EF92FF920F9358
:1000C0001F93CF93DF938C015C0182E0F82E85E0D3
:1000D00090E00E941901EC010E943901D501CD93F5
:1000E000DD935D0186E090E00E941901D82EE92E93
:1000F0004F2DBE010E94FF00F50132978081918152
:10010000DC01ED91FC910480F581E02D6D2D7E2DBB
:100110000995F394B8E0FB12DACFF8011486DF9169
:10012000CF911F910F91FF90EF90DF90BF90AF9014
:100130000895EF92FF920F931F93CF93DF93EC01FB
:10014000EC85F0E0EE0FFF1FEC0FFD1F0081118129
:10015000D801ED91FC91E080F1800280F381E02DE7
:10016000C801099561E06827C801F70109958C85E8
:100170008530C1F08F5F8C878E01045F1F4F89919E
:100180009991DC01ED91FC910680F781E02D0995B4
:10019000C017D107A1F7DF91CF911F910F91FF9069
:1001A000EF90089580E0E7CFCF93DF93EC018A8151
:1001B0009B81DC01ED91FC910280F381E02D09959A
:1001C0008D83E881F9810280F381E02DCE01DF91FA
:1001D000CF910994FC013BB12BB1858190E09195C1
:1001E000819591098327348141E050E002C0440F9A
:1001F000551F3A95E2F7842382278BB90895FC01B5
:1002000086E191E091838083738362834483CF018D
:100210000C94D400FC0181E090E02081222311F0B5
:1002200090E080E0089521E0FC0120830895089586
:1002300008950C9464010C94FA018AB18C6F8AB908
:100240000895FC0182810895FC0162830895DC0118
:1002500013968D919C91009739F0DC01ED91FC9102
:100260000190F081E02D09940895FC01748363836B
:100270000895CF93DF93EC010E9453008EE191E04B
:10028000998388831C821B82DF91CF910895CDB71B
:10029000DEB72D970FB6F894DEBF0FBECDBF0E941C
:1002A0001D018E010F5F1F4FC8010E945A002FEFE2
:1002B0008DEE92E0215080409040E1F700C00000B8
:1002C000C8010E949900F3CF0F931F93CF93DF9340
:1002D0009C01029710F422E030E0E0912601F091B9
:1002E000270190E080E0B0E0A0E0309791F4009723
:1002F00009F445C0821B930B84309105B8F58A81BF
:100300009B816115710569F1FB0193838283FE0175
:1003100011C0408151810281138142175307F0F0CF
:100320004217530799F4109761F012960C931297A5
:1003300013961C933296CF01DF91CF911F910F91AD
:1003400008950093260110932701F4CF009719F028
:100350004817590718F4CA01BD01EF01DF01F80180
:10036000C4CF9093270180932601D1CFFE01E80FDF
:10037000F91F21933193029799838883DCCF809171
:10038000280190912901892B41F4809102019091DB
:10039000030190932901809328018091000190919D
:1003A0000101009741F48DB79EB74091040150912F
:1003B0000501841B950B4091280150912901481794
:1003C000590708F0B8CF841B950B8217930708F4E0
:1003D000B2CFB9016E5F7F4F8617970708F4ABCF96
:1003E000640F751F7093290160932801FA0121930E
:1003F0003193A1CFCF93DF939C010097E9F0FC01EB
:10040000329713821282C0912601D0912701DE011A
:1004100090E080E02097A1F480819181280F391F1E
:1004200080912801909129018217930709F067C0F4
:10043000F0932901E0932801DF91CF910895DA012B
:10044000AE17BF0708F041C012964D915C9113970B
:10045000CD014115510599F7DC011396FC93EE93FC
:1004600012974D915D91A40FB51FEA17FB0781F418
:10047000208131812E5F3F4F240F351FDC01119603
:100480003C932E932281338113963C932E931297A3
:10049000B0E0A0E08A819B810097B1F5FE018191D7
:1004A0009191E80FF91F80912801909129018E17F1
:1004B0009F0711F6109759F5109227011092260107
:1004C000D0932901C0932801B7CFB383A283408181
:1004D0005181240F351FA217B30771F44E5F5F4F90
:1004E0002D913C911197240F351F31832083129653
:1004F0002D913C9133832283009709F0ADCFF09387
:100500002701E093260198CFDE01EC01C3CF1396BB
:0C0510001C921E921297D4CFF894FFCFDB
:10051C0000002A0120000000000018011801180139
:10052C00180100000000D400EA00000000002401C3
:06053C0021013501270139
:00000001FF
